S01800006175746F7361722044696F207461736B2E73726563FE
S11300000C942A000C9447000C9447000C9447006D
S11300100C9447000C9447000C9447000C94470040
S11300200C9447000C9447000C9447000C94470030
S11300300C9447000C9447000C9447000C94470020
S11300400C9447000C9447000C9447000C94470010
S11300500C94470011241FBECFE5D8E0DEBFCDBF0E
S113006010E0A0E6B0E0E8EDF3E002C005900D92E8
S1130070A438B107D9F720E0A4E8B0E001C01D928C
S1130080A438B207E1F70E9445010C94EA010C94EC
S11300900000A0E6B0E01296ED91FC911397208346
S11300A0FACF909164008917E1F190916700981755
S11300B031F190916A00891729F190916D00981798
S11300C021F12AE040E060E08DE790E00E944900E1
S11300D020E080E090E081549109FC01EE0FFF1FC5
S11300E08E0F9F1FEE27FF27E81BF90B81AD90E0D1
S11300F002C0959587952A95E2F78170089581E06D
S113010090E005C082E090E002C083E090E0FC0152
S1130110EE0FFF1FE80FF91FEC59FF4F8281218179
S1130120D9CFE4E6F0E082812181D4CFCF93C62FEA
S113013090916400891709F44AC090916700891767
S113014089F190916A00891781F190916D00981757
S113015079F12AE041E060E08DE790E00E944900F7
S113016020E0E0E0F0E0E154F109CF01880F991FAD
S1130170E80FF91FF195E195F10963AD81E090E095
S1130180022E02C0880F991F0A94E2F780958623F5
S11301906C2F70E002C0660F771F2A95E2F7682B78
S11301A063AF1DC081E090E005C082E090E002C032
S11301B083E090E0DC01AA0FBB1FA80FB91FAC5964
S11301C0BF4F1296EC91129711962C91CBCFA4E6C7
S11301D0B0E01296EC91129711962C91C3CFCF9167
S11301E00895CF93C82F80916400C81709F443C0C1
S11301F080916700C81751F180916A00C81749F1CE
S113020080916D008C1741F12AE041E060E08DE7B8
S113021090E00E94490030E0E1E4F0E0E154F109AB
S1130220CF01880F991FE80FF91FF195E195F109A6
S113023023AD81E090E002C0880F991F3A95E2F760
S1130240822783AF8C2F0E9451001DC081E090E073
S113025005C082E090E002C083E090E0DC01AA0FD8
S1130260BB1FA80FB91FAC59BF4F1296EC91129740
S113027011963C91D2CFA4E6B0E01296EC9112977D
S113028011963C91CACFCF91089580E790E00E94E7
S1130290780186E00E94F10061E081E00E9496000E
S11302A02FEF89E698E1215080409040E1F700C0AB
S11302B0000086E00E94F10060E081E00E94960068
S11302C02FEF89E698E1215080409040E1F700C08B
S11302D0000089E00E945100813029F461E088E047
S11302E00E949600D6CF60E088E00E949600D1CFAD
S11302F01F93CF93DF93DC01BC01685F7F4F41E024
S113030050E0ED91FC9111979281923029F1C081D6
S1130310D181EA81F0E0E154F1099F01220F331FFA
S1130320E20FF31FF195E195F10932AD1981EA016C
S1130330012E02C0CC0FDD1F0A94E2F72C2F20956A
S1130340822F8323292F30E002C0220F331F1A95F6
S1130350E2F7282B22AF35C0C081D181EA81F0E0D9
S1130360E154F109CF01880F991FE80FF91FF195A6
S1130370E195F10992AD9A01098002C0220F331F61
S11303800A94E2F7822F8095892382AFED91FC9144
S11303901197C081D181EA81F0E0E154F109CF01E4
S11303A0880F991FE80FF91FF195E195F10923AD25
S11303B0CA01098002C0880F991F0A94E2F7822BB0
S11303C083AF1296A617B70709F09BCFDF91CF91A1
S10B03D01F910895F894FFCF7A
S11303D83400350001014106064109014208004282
S11303E878007B007E0081006400016700016A00D8
S10703F8026D00018D
S9030000FC
