S01800006175746F7361722044696F207461736B2E73726563FE
S11300000C942A000C9447000C9447000C9447006D
S11300100C9447000C9447000C9447000C94470040
S11300200C9447000C9447000C9447000C94470030
S11300300C9447000C9447000C9447000C94470020
S11300400C9447000C9447000C9447000C94470010
S11300500C94470011241FBECFE5D8E0DEBFCDBF0E
S113006010E0A0E6B0E0E4E0F4E002C005900D92F8
S1130070A438B107D9F720E0A4E8B0E001C01D928C
S1130080A438B207E1F70E945B010C9400020C94BF
S11300900000E0916200F091630020832FEF8DE374
S11300A099E4215080409040E1F700C0000080E0D6
S11300B0089590916400891709F448C090916700ED
S11300C0891791F190916A00891789F190916D00D7
S11300D0981781F12AE040E060E08DE790E00E940B
S11300E04900089590E081549109FC01EE0FFF1F2F
S11300F08E0F9F1FEE27FF27E81BF90B81AD21E030
S113010030E0042E02C0220F331F0A94E2F790E07D
S11301102823392302C0359527954A95E2F781E0D3
S1130120232BC9F480E0089581E090E005C082E0CB
S113013090E002C083E090E0FC01EE0FFF1FE80FA7
S1130140F91FEC59FF4F82814181CCCFE4E6F0E006
S113015082814181C7CF089590916400891709F481
S113016051C090916700891791F190916A008917A5
S113017089F190916D00981781F12AE041E060E0E7
S11301808DE790E00E9449000895813009F044C051
S1130190F0E0E154F109CF01880F991FE80FF91F2E
S11301A0F195E195F10923AD81E090E0032E02C0C1
S11301B0880F991F0A94E2F78095822370E002C0A9
S11301C0660F771F3A95E2F7682B63AF089581E0D5
S11301D090E005C082E090E002C083E090E09C01E2
S11301E0220F331F820F931FDC01AC59BF4F1296AD
S11301F0EC91129711963C91DC01A858BF4F1296CE
S11302008C91C3CFA4E6B0E01296EC9112971196AC
S11302103C9180917A00B9CF089590916400891738
S113022009F441C090916700891741F190916A00E7
S1130230891739F190916D00981731F12AE041E066
S113024060E08DE790E00E9449000895F0E0E154F9
S1130250F1099F01220F331FE20FF31FF195E1957E
S1130260F10993AD21E030E002C0220F331F4A951B
S1130270E2F7292723AF0E945900089521E030E0D6
S113028005C022E030E002C023E030E0D901AA0F2B
S1130290BB1FA20FB31FAC59BF4F1296EC9112971C
S11302A011964C91D3CFA4E6B0E01296EC9112973C
S11302B011964C91CBCF80E790E00E948E0186E0AE
S11302C00E940D0161E081E00E94AC002FEF89E6FD
S11302D098E1215080409040E1F700C0000086E0A2
S11302E00E940D0160E081E00E94AC002FEF89E6DE
S11302F098E1215080409040E1F700C0000089E07F
S11303000E945900813029F461E088E00E94AC0029
S1130310D6CF60E088E00E94AC00D1CF1F93CF938A
S1130320DF93DC01BC01685F7F4F41E050E0ED9159
S1130330FC9111979281923029F1C081D181EA8197
S1130340F0E0E154F1099F01220F331FE20FF31F84
S1130350F195E195F10932AD1981EA01012E02C04E
S1130360CC0FDD1F0A94E2F72C2F2095822F8323D4
S1130370292F30E002C0220F331F1A95E2F7282BF1
S113038022AF35C0C081D181EA81F0E0E154F109A6
S1130390CF01880F991FE80FF91FF195E195F10935
S11303A092AD9A01098002C0220F331F0A94E2F72A
S11303B0822F8095892382AFED91FC911197C081A2
S11303C0D181EA81F0E0E154F109CF01880F991F4E
S11303D0E80FF91FF195E195F10923ADCA010980F0
S11303E002C0880F991F0A94E2F7822B83AF1296FA
S11303F0A617B70709F09BCFDF91CF911F910895FE
S1070400F894FFCF9A
S11304043400350001014106064109014208004255
S113041478007B007E0081006400016700016A00AB
S1070424026D000160
S9030000FC
