S01800006175746F7361722044696F207461736B2E73726563FE
S11300000C942A000C9447000C9447000C9447006D
S11300100C9447000C9447000C9447000C94470040
S11300200C9447000C9447000C9447000C94470030
S11300300C9447000C9447000C9447000C94470020
S11300400C9447000C9447000C9447000C94470010
S11300500C94470011241FBECFE5D8E0DEBFCDBF0E
S113006010E0A0E6B0E0E8EFF3E002C005900D92E6
S1130070A438B107D9F720E0A4E8B0E001C01D928C
S1130080A438B207E1F70E9455010C94FA010C94CC
S11300900000E0916200F0916300208381E0089504
S11300A090916400891709F449C0909167008917F9
S11300B099F190916A00891791F190916D009817C8
S11300C089F12AE040E060E08DE790E00E94490079
S11300D080E0089590E081549109FC01EE0FFF1F28
S11300E08E0F9F1FEE27FF27E81BF90B81AD21E040
S11300F030E0042E02C0220F331F0A94E2F790E08E
S11301002823392302C0359527954A95E2F781E0E3
S1130110232BC9F480E0089581E090E005C082E0DB
S113012090E002C083E090E0FC01EE0FFF1FE80FB7
S1130130F91FEC59FF4F82814181CCCFE4E6F0E016
S113014082814181C7CF0895909164008917A9F0F5
S113015090916700891759F090916A00891751F0BE
S113016090916D00981337C083E090E008C081E05F
S113017090E005C082E090E002C080E090E0DC0105
S1130180AA0FBB1FA80FB91FAC59BF4F1296EC9111
S11301901297F0E0E154F109CF01880F991FE80F9D
S11301A0F91FF195E195F10982AD11964C9121E089
S11301B030E0042E02C0220F331F0A94E2F790E0CD
S11301C082239323042E02C0959587950A94E2F71F
S11301D08130A1F408C02AE041E060E08DE790E0BE
S11301E00E944900089583AD2095282370E002C041
S11301F0660F771F4A95E2F7622B63AF0895CF939A
S1130200C82F80916400C81709F445C08091670025
S1130210C81761F180916A00C81759F180916D0087
S11302208C1751F12AE041E060E08DE790E00E94F4
S113023049008C2F0E94500036C0F0E0E154F109CF
S1130240CF01880F991FE80FF91FF195E195F10986
S113025023AD81E090E002C0880F991F3A95E2F740
S1130260822783AF8C2F0E9450001DC081E090E054
S113027005C082E090E002C083E090E0DC01AA0FB8
S1130280BB1FA80FB91FAC59BF4F1296EC91129720
S113029011963C91D2CFA4E6B0E01296EC9112975D
S11302A011963C91CACFCF91089580E790E00E94C7
S11302B0880186E00E94FF0061E081E00E94A400C2
S11302C02FEF89E698E1215080409040E1F700C08B
S11302D0000086E00E94FF0060E081E00E94A4002C
S11302E02FEF89E698E1215080409040E1F700C06B
S11302F0000089E00E945000813029F461E088E028
S11303000E94A400D6CF60E088E00E94A400D1CF70
S11303101F93CF93DF93DC01BC01685F7F4F41E003
S113032050E0ED91FC9111979281923029F1C081B6
S1130330D181EA81F0E0E154F1099F01220F331FDA
S1130340E20FF31FF195E195F10932AD1981EA014C
S1130350012E02C0CC0FDD1F0A94E2F72C2F20954A
S1130360822F8323292F30E002C0220F331F1A95D6
S1130370E2F7282B22AF35C0C081D181EA81F0E0B9
S1130380E154F109CF01880F991FE80FF91FF19586
S1130390E195F10992AD9A01098002C0220F331F41
S11303A00A94E2F7822F8095892382AFED91FC9124
S11303B01197C081D181EA81F0E0E154F109CF01C4
S11303C0880F991FE80FF91FF195E195F10923AD05
S11303D0CA01098002C0880F991F0A94E2F7822B90
S11303E083AF1296A617B70709F09BCFDF91CF9181
S10B03F01F910895F894FFCF5A
S11303F83400350001014106064109014208004262
S113040878007B007E0081006400016700016A00B7
S1070418026D00016C
S9030000FC
